:020000040800F2
:10000000280F00207524000841050008430500085A
:10001000470500084B0500084F05000800000000D8
:100020000000000000000000000000005305000870
:100030005505000800000000570500085905000894
:100040008F2400088F2400088F2400088F240008C4
:100050008F2400088F2400088F2400088F240008B4
:100060008F2400088F2400088F2400088F240008A4
:100070008F2400088F2400088F2400088F24000894
:100080008F2400088F2400088F2400088F24000884
:100090008F2400088F2400088F2400088F24000874
:1000A0008F2400088F2400088F2400088F24000864
:1000B0008F2400088F240008714A00088F2400084C
:1000C0008F2400088F2400088F2400088F24000844
:1000D0008F240008E92300088F240008351D00083C
:1000E0008F2400088F2400088F2400088F24000824
:1000F0008F2400088F2400088F2400088F24000814
:100100008F2400088F2400088F2400088F24000803
:100110008F2400088F2400088F240008AD1C0008DD
:100120008F2400088F2400088F2400088F240008E3
:100130008F2400088F2400088F2400088F240008D3
:100140008F2400088F2400088F2400088F240008C3
:100150008F2400088F2400088F240008971E0008B1
:100160008F2400088F2400088F2400088F240008A3
:100170008F2400088F2400088F2400088F24000893
:100180008F2400088F24000800F002F800F0B2F875
:100190000AA090E8000C82448344AAF10107DA45E2
:1001A00001D100F0A7F8AFF2090EBAE80F0013F082
:1001B000010F18BFFB1A43F001031847AC88000079
:1001C000CC8800000A444FF0000C10F8013B13F0FB
:1001D000070408BF10F8014B1D1108BF10F8015BA0
:1001E000641E05D010F8016B641E01F8016BF9D193
:1001F00013F0080F1EBF10F8014BAD1C0C1B09D1EA
:100200006D1E58BF01F801CBFAD505E014F8016B5B
:1002100001F8016B6D1EF9D59142D6D370470000ED
:100220000023002400250026103A28BF78C1FBD8FF
:10023000520728BF30C148BF0B6070476E2905F0D8
:100240003F84702905F07382662907F06C82652966
:1002500007F06982672907F066826129AFF30080A1
:1002600003681B0A28BF41F08001692905F0E48179
:10027000642905F0E181752905F0DE816F2905F01B
:100280003785782905F03F82E92905F0D184E429F2
:1002900005F0CE84F52905F0CB84EF2905F03485EF
:1002A000F82905F03E820368DB0928BF41F0800190
:1002B000632905F04084732905F04584E32905F09E
:1002C000BB87F32905F0C087002070471FB507F0F2
:1002D00025FA06F00FF804000020002106F080FD4A
:1002E000401C60600020002106F064FDE0601FBD3E
:1002F00010B510BD05F0D0FF1146FFF7E7FF00F085
:1003000009F806F0A9F803B4FFF7F2FF03BC02F006
:1003100007F8000000250020594908805949088045
:100320004FF4A06002F0C6F8A82001F077FF01F0BA
:100330009DFC4FF4E13002F001F85348416854202D
:1003400088474FF47A7001F0CBFF4FF480514F484B
:1003500002F022FA01F06EFE00F0A4FA4FF47A7077
:1003600001F0BEFF01F0ABF84FF47A7001F0B8FF76
:100370004FF40051454802F00FFA80E040480088F1
:1003800000F4004000285AD0414804783C480578E1
:1003900000203F4948553A490880302C03D13DA000
:1003A00001F055FD3EE0312C03D13CA001F04FFDA2
:1003B00038E0322C03D13BA001F049FD32E0332C70
:1003C00003D13AA001F043FD2CE0342C03D13AA034
:1003D00001F03DFD26E0352C03D13AA001F037FDB8
:1003E00020E0362C03D13AA001F031FD1AE0382C80
:1003F00003D13AA001F02BFD14E0402C03D13BA027
:1004000001F025FD0EE0412C03D13CA001F01FFDC1
:1004100008E0372C03D13DA001F019FD02E03FA018
:1004200001F0CEFD002001F033F8322001F058FF3A
:10043000012001F02DF8322001F052FF00BF1148D9
:10044000008800F40040D0B10E48057800203649FD
:1004500048550C490880344934A001F0B1FD4FF4EF
:1004600000410A4802F098F90A2001F039FF4FF4E0
:100470000041064802F092F90A2001F031FF7DE7C1
:100480002A0000203400002084000020000C0240DC
:10049000E0040020616161616100000061616161EF
:1004A000616100006161616161616100616161615F
:1004B00061616161000000006161616161616161B0
:1004C0006100000061616161616161616161000001
:1004D000616161616161616161616100616161616D
:1004E000616161616161616161000000616161611F
:1004F00061616161616161616161000061616161AE
:10050000616161616161616161616100616161613C
:100510006161616161616161000000003030303013
:10052000303030300D0A0000000800206469737418
:10053000616E63652069732025730D0A0000000059
:10054000704700BFFEE700BFFEE700BFFEE700BF49
:10055000FEE7704770477047704700000CB50020F9
:10056000019000907648006840F48030744908603B
:1005700000BF7348006800F4003000900198401CF0
:100580000190009818B90198B0F5A04FF1D16C48CE
:10059000006800F4003010B10120009001E000205C
:1005A00000900098012846D165484030006840F02E
:1005B00080506349403108606248006840F4404020
:1005C000604908605E48083000685D49083108608D
:1005D0000846006840F4004008600846006840F49F
:1005E000A05008605848091F0860081F006840F0C4
:1005F0008070091F086000BF5148006800F000705B
:100600000028F9D040F20570504908604C48083085
:10061000006820F003004A49083108600846006875
:1006200040F00200086000BF45480830006800F054
:100630000C000828F8D10CBD10B54548006840F4FE
:100640007000434908603E48006840F001003C49A2
:10065000086000203A4908310860394800683D497F
:100660000840374908603C48091D0860081F0068B9
:1006700020F48020091F0860002031490C310860F7
:10068000FFF76CFF4FF0006031498039086010BD02
:1006900070B500200022022300240221284D0835D5
:1006A0002D6805F00C0020B1042806D0082834D1AC
:1006B00007E02A4D2A4E356033E02A4D284E35603A
:1006C0002FE01F4D2D1D2D68C5F380541C4D2D1D91
:1006D0002D6805F03F0154B1224DB5FBF1F5184EE0
:1006E000361D3668C6F3881605FB06F209E01B4D79
:1006F000B5FBF1F5124E361D3668C6F3881605FBBC
:1007000006F20F4D2D1D2D68C5F301456D1C6B00C4
:10071000B2FBF3F5124E356003E0104D104E35601C
:1007200000BF00BF064D08352D68C5F303150E4EFA
:10073000705D0B4D2D68C540094E356070BD0000E1
:10074000003802400070004008544007003C02405E
:1007500088ED00E0FFFFF6FE103000240024F400D6
:100760000000002000127A000400002070B5054649
:100770000C46164636B1012E23D0022E0CD0032E85
:100780001ED113E0A4F12000144A02EB0011102244
:10079000284605F0BAF81EE0A4F12000104901EB4C
:1007A000C000016829604068686014E0A4F120007E
:1007B0000C4901EBC00001682960406868600AE0EC
:1007C00000BFA4F12000084A02EB001110222846C5
:1007D00005F09BF800BF00BF70BD00001A7D000847
:1007E0002A770008227A00080A8300081CB5012134
:1007F000192002F0F3F94FF6FF70009003208DF8F6
:10080000050001208DF804006946FA4801F048FF10
:100810004FF47840009003208DF8050001208DF8FA
:1008200004006946F44801F03BFF012000900320DA
:100830008DF8050001208DF804006946EF4801F0AD
:100840002FFF1CBD70B504460D4626462C4640F2CF
:100850003F10801B85B221464E2006F075FA2946CE
:100860004F2006F071FA70BD70B5054600240021D6
:100870000846FFF7E7FF4FF48041DF4801F08EFFA5
:10088000222006F045FA00BF03E0284606F028FAC9
:10089000641CB4F5963FF8D34FF48041D64801F07C
:1008A0007BFF70BD10B5FFF7A1FF4FF40061D24888
:1008B00001F074FF642001F013FD4FF40061CE4895
:1008C00001F06AFF0121CD4801F066FF01210020FF
:1008D00006F03AFA322001F003FD4AF6A4010320A3
:1008E00006F032FA322001F0FBFC00210C2006F069
:1008F0002BFA322001F0F4FC40F60C010D2006F03A
:1009000023FA322001F0ECFC4FF42C510E2006F0BB
:100910001BFA322001F0E4FCB0211E2006F014FA8C
:10092000322001F0DDFC42F63F31012006F00CFAE6
:10093000322001F0D5FC4FF4C061022006F004FA29
:10094000322001F0CDFC0021102006F0FDF932200C
:1009500001F0C6FC46F27001112006F0F5F93220D4
:1009600001F0BEFC0021052006F0EEF9322001F076
:10097000B7FC0021062006F0E7F9322001F0B0FCB8
:100980004EF61C71162006F0DFF9322001F0A8FCAB
:100990000321172006F0D8F9322001F0A1FC40F223
:1009A0003311072006F0D0F9322001F099FC002124
:1009B0000B2006F0C9F9322001F092FC00210F2033
:1009C00006F0C2F9322001F08BFC0021412006F034
:1009D000BBF9322001F084FC0021422006F0B4F97A
:1009E000322001F07DFC0021482006F0ADF93220D4
:1009F00001F076FC40F23F11492006F0A5F93220C3
:100A000001F06EFC00214A2006F09EF9322001F030
:100A100067FC00214B2006F097F9322001F060FCC2
:100A20004FF46F41442006F08FF9322001F058FC5A
:100A30000021452006F088F9322001F051FC40F2F7
:100A40003F11462006F080F9322001F049FC40F2C7
:100A50000771302006F078F9322001F041FC4FF4A4
:100A60000171312006F070F9322001F039FC4FF4A9
:100A70000171322006F068F9322001F031FC40F2B9
:100A80000251332006F060F9322001F029FC40F2D7
:100A90000751342006F058F9322001F021FC4FF4C0
:100AA0000171352006F050F9322001F019FC4FF4A5
:100AB0000171362006F048F9322001F011FC40F2B5
:100AC0000251372006F040F9322001F009FC40F2D3
:100AD00002313A2006F038F9322001F001FC40F2F0
:100AE00002313B2006F030F9322001F0F9FB002101
:100AF000232006F029F9322001F0F2FB0021242006
:100B000006F022F9322001F0EBFB4FF400412520E2
:100B100006F01AF9322001F0E3FB00214F2006F025
:100B200013F900214E2006F00FF9322001F0D8FB16
:100B30000020FFF799FE4FF4FA7001F0D1FB10BDD1
:100B400070B504460D4629462046FFF77BFE4FF45C
:100B50008041294801F022FE222006F0D9F806F053
:100B600081F8064606F07EF806464FF4804122489A
:100B700001F012FE304670BD70B506460C461546B3
:100B8000B6F5A07F01DAF02C00DB70BD21463046BF
:100B9000FFF758FE2946222006F0D6F800BFF4E7FA
:100BA0002DE9F05F04460D4691469A46DDF828B0DF
:100BB0004C4503DD0FFA89F7A146BCB2554503DD6C
:100BC0000FFA8AF7AA46BDB2A9EB04000FFA80F823
:100BD000AAEB050006B2B8F1000F11D100BF5A46CA
:100BE00029462046FFF7C8FF681C85B2AA45F6DAF9
:100BF000BDE8F09F00100240000C024000000240DF
:100C000056B900BF5A4629462046FFF7B5FF601C7B
:100C100084B2A145F6DAEBE7B04521DDC8EB46002A
:100C200007B215E05A4629462046FFF7A5FF601C8B
:100C300084B2002F08DD681C85B27000022101FB20
:100C40001800384407B203E0022000FB067007B228
:100C50004C45E7D15A4629462046FFF78DFF20E054
:100C6000C6EB480007B215E05A4629462046FFF772
:100C700083FF681C85B2002F08DD601C84B2700001
:100C8000022101FB1800384407B203E0022000FBF8
:100C9000067007B25545E7D15A4629462046FFF768
:100CA0006BFF00BFA4E72DE9FF4F85B08046894662
:100CB0009246139868B101280CD0022802D003286C
:100CC00006D102E00626082707E00826082704E0E8
:100CD00000BF00BF0826102700BF00BF514601A873
:100CE000139AFFF743FD002424E001A810F804B094
:100CF00000251BE0C5F107004BFA00F000F00100F1
:100D000048B109EB040291B208EB050290B2089ACF
:100D1000FFF732FF08E009EB040291B208EB05028D
:100D200090B2129AFFF728FF681C85B2B542E1DB4A
:100D3000601C84B2BC42D8DB09B0BDE8F08F2DE95D
:100D4000FC4104460D4616461F46DDF82080012072
:100D50003B4632462946CDE900802046FFF7A3FFF7
:100D6000BDE8FC812DE9FF4F85B08046894692465B
:100D7000129868B101280CD0022802D0032806D1AD
:100D800002E00626082707E00826082704E000BF3F
:100D900000BF0826102700BF00BF514601A8129AC5
:100DA000FFF7E4FC00241AE001A810F804B00025C5
:100DB00011E0C5F107004BFA00F000F0010040B16E
:100DC00009EB040291B208EB050290B2089AFFF712
:100DD000D3FE681C85B2B542EBDB601C84B2BC421A
:100DE000E2DB09B0BDE8F08FF8B504460D461646C3
:100DF0001F4601203B463246294600902046FFF719
:100E0000B1FFF8BD2DE9FF4F83B00746884616466F
:100E1000DDE910B9B9F1000F10D0B9F1010F0ED012
:100E2000B9F1020F03D0B9F1030F06D102E0062495
:100E3000082507E00824082504E000BF00BF0824B7
:100E4000102500BF00BF00BF16F801ABCDE900B907
:100E5000524641463846069BFFF725FFC4F5A07071
:100E6000B84202DD381987B20BE0C5F1F000404509
:100E700005DD002708EB05001FFA80F801E00027D8
:100E8000B84630780028DFD107B0BDE8F08F2DE9F3
:100E9000FC4104460D4616461F46DDF82080012021
:100EA0003B4632462946CDE900802046FFF7AAFF9F
:100EB000BDE8FC812DE9F84305460E4614469846E8
:100EC000DDF8209000BF14F8017B43463A463146D6
:100ED0002846CDF80090FFF745FFB5F59C7F03DA73
:100EE00005F1080085B208E0E02E04DA002506F1DD
:100EF000100086B201E00025002620780028E2D10B
:100F0000BDE8F883F8B504460D4616461F46012095
:100F10003B463246294600902046FFF7CBFFF8BDFE
:100F20002DE9F05F04460F4690469946DDF828B05B
:100F30004FF0000A07EB090086B211E0254609E0F0
:100F40003BF81A2031462846FFF716FE0AF1010A3F
:100F5000681C85B204EB0800A842F1DC701E86B262
:100F6000002EEBDCBDE8F09F2DE9F84F04468846E3
:100F700091469A46DDF828B0002708EB0A0086B2B1
:100F800017E025460FE01BF80710781C1BF800003F
:100F900041EA0020009031462846009AFFF7ECFD18
:100FA000BF1C681C85B204EB0900A842EBDC701E74
:100FB00086B2002EE5DCBDE8F88F2DE9FF5F044620
:100FC0000D469046C8F101000FFA80F94FF0010A72
:100FD0004FEA480040420FFA80FB00260FFA88F7DC
:100FE00005EB080081B22046039AFFF7C5FDA5EB8B
:100FF000080081B22046039AFFF7BEFD04EB08010A
:1010000088B22946039AFFF7B7FDA4EB080188B21E
:101010002946039AFFF7B0FD4EE0B9F1000F09DB56
:10102000781E07B20BF102000FFA80FB09EB0B00F0
:101030000FFA80F9701C06B20AF102000FFA80FA6A
:1010400009EB0A000FFA80F9EA1991B2A21990B2DD
:10105000039AFFF791FDEA1991B2A21B90B2039A8D
:10106000FFF78AFDEA1B91B2A21990B2039AFFF72B
:1010700083FDEA1B91B2A21B90B2039AFFF77CFD9D
:10108000AA1991B2E21990B2039AFFF775FDAA1955
:1010900091B2E21B90B2039AFFF76EFDAA1B91B2C8
:1010A000E21990B2039AFFF767FDAA1B91B2E21B07
:1010B00090B2039AFFF760FDBE42AEDBBDE8FF9F32
:1010C0002DE9FF4F81B081460D461646C6F101005D
:1010D0000FFA80FA4FF0010B7000404200B200900E
:1010E00000270FFA86F8A81B04B206E0A1B2484612
:1010F000049AFFF741FD601C04B2A819A042F5DA7A
:1011000046E0BAF1000F0BDBA8F101000FFA80F8FE
:101110000098801C00B20090009850440FFA80FAAA
:10112000781C07B20BF102000FFA80FB0AEB0B00F0
:101130000FFA80FAA5EB080004B20FE0A1B209EBA8
:10114000070290B2049AFFF717FDA1B2A9EB0702BC
:1011500090B2049AFFF710FD601C04B205EB080082
:10116000A042EBDAE81B04B20FE0A1B209EB0802DF
:1011700090B2049AFFF700FDA1B2A9EB080290B269
:10118000049AFFF7F9FC601C04B2E819A042ECDAFB
:101190004745B6DB05B0BDE8F08F2DE9F8430446BE
:1011A0000D4616461F46DDF82080B4F5A07F01DD10
:1011B0004FF4A074F02D00DDF025A019B0F5A07F4C
:1011C00002DDC4F5A07086B2E819F02802DDC5F191
:1011D000F00087B2E81983B2224629462046CDF8AE
:1011E0000080FFF7DDFCA01982B22B46294620467D
:1011F000CDF80080FFF7D4FCEA1993B2EA1991B256
:10120000A21990B22246CDF80080FFF7C9FCA319BD
:101210009AB2EB1999B2A31998B22B46CDF8008077
:10122000FFF7BEFCBDE8F8832DE9F04704460D4604
:1012300017469846DDF820A0B4F5A07F01DD4FF4F5
:10124000A074F02D00DDF025E019B0F5A07F02DDDF
:10125000C4F5A07087B205EB0800F02803DDC5F1E6
:10126000F0001FFA80F8264610E0A94608E0524632
:1012700049463046FFF780FC09F101001FFA80F96A
:1012800005EB08004845F2DC701C86B2E019B0425C
:10129000EBDCBDE8F0872DE9F84F82460F4690461B
:1012A00099460AAC70CCBAF5A07F01DD4FF4A07A64
:1012B000F02F00DDF027B8F5A07F01DD4FF4A07816
:1012C000B9F1F00F01DD4FF0F009B4F5A07F01DDB9
:1012D0004FF4A074F02D00DDF0254B464246394610
:1012E00050460096FFF75CFC2B4622463946504696
:1012F0000096FFF755FC4B4642462946204600968D
:10130000FFF74EFCBDE8F88FF8B504460D461746CA
:101310001E46A11E8AB20D3988B22B462946009777
:10132000FFF73EFC04F10F018AB2A11C88B22B46E4
:1013300029460097FFF734FCA81E83B20D3881B20E
:10134000224620460097FFF72BFC05F10F0083B2E1
:10135000A81C81B2224620460097FFF721FC05F128
:101360000F0C1FFA8CF3A4F1070C1FFA8CF205F195
:101370000F0C1FFA8CF1A4F10F0C1FFA8CF00096E1
:10138000FFF70EFC05F10F0C1FFA8CF3A4F10F0C04
:101390001FFA8CF205F1070C1FFA8CF1A4F10F0C67
:1013A0001FFA8CF00096FFF7FBFBA5F10F0C1FFA5C
:1013B0008CF3A4F1070C1FFA8CF2A5F10F0C1FFAA5
:1013C0008CF1A4F10F0C1FFA8CF00096FFF7E8FBEC
:1013D000A5F10F0C1FFA8CF3A4F10F0C1FFA8CF27D
:1013E000A5F1070C1FFA8CF1A4F10F0C1FFA8CF079
:1013F0000096FFF7D5FB05F10F0C1FFA8CF304F1F3
:101400000F0C1FFA8CF205F10F0C1FFA8CF104F18E
:10141000070C1FFA8CF00096FFF7C2FB05F10F0CCA
:101420001FFA8CF304F10F0C1FFA8CF205F1070C74
:101430001FFA8CF104F10F0C1FFA8CF00096FFF7E5
:10144000AFFBA5F10F0C1FFA8CF304F10F0C1FFA80
:101450008CF2A5F10F0C1FFA8CF104F1070C1FFAA6
:101460008CF00096FFF79CFBA5F1070C1FFA8CF39C
:1014700004F10F0C1FFA8CF2A5F10F0C1FFA8CF17E
:1014800004F10F0C1FFA8CF00096FFF789FBF8BDF2
:1014900010B5044624B10121044801F07DF903E0B0
:1014A0000121024801F07AF910BD0000000002405D
:1014B00010B54FF40071FB4801F06EF910BD00B596
:1014C00087B00121042001F089FB4FF4E050059022
:1014D00002208DF8180000208DF81A0003208DF8E6
:1014E000190000208DF81B0005A9EE4801F0D8F87E
:1014F0004FF40070059001208DF8180000208DF841
:101500001A0003208DF8190000208DF81B0005A992
:10151000E44801F0C5F84FF48070059000208DF884
:1015200018008DF81A0003208DF8190000208DF89E
:101530001B0005A9DB4801F0B3F806220A21D948AF
:1015400001F039F906220B21D64801F034F90622C0
:101550000C21D44801F02FF9FFF7AAFF0121C8039D
:1015600001F085FB0021D04802F04EFE0020ADF8CE
:1015700000004FF48270ADF802000020ADF80400C6
:10158000ADF80600ADF808004FF40070ADF80A00A1
:101590003020ADF80C000020ADF80E000720ADF8AB
:1015A00010006946C04802F035FD0121BE4802F036
:1015B0002BFE07B000BD70B500BF0221BA4802F093
:1015C000EDFE0028F9D00021B74802F09EFE00BFD2
:1015D0000121B54802F0E2FE0028F9D0B24802F03D
:1015E00091FE05464FF6FF7000EA0524012000F049
:1015F00077FE00BF0221AC4802F0D0FE0028F9D0EF
:101600000021A94802F081FE00BF0121A64802F096
:10161000C5FE0028F9D0A44802F074FE05462C430C
:10162000E410C4F30B04204670BD10B5044600BF9F
:1016300002219D4802F0B2FE0028F9D021469A48C6
:1016400002F063FE00BF0121974802F0A7FE0028C8
:10165000F9D0954802F056FE10BD10B54FF4007158
:10166000904801F09BF810BD10B5FFF7F6FF012080
:1016700000F036FE9020FFF7D8FF012000F030FE8A
:10168000FFF799FF0446FFF713FF204610BD10B582
:10169000FFF7E3FF012000F023FED020FFF7C5FF96
:1016A000012000F01DFEFFF786FF0446FFF700FF54
:1016B000204610BD2DE9F04104460D46FFF7D4FF4A
:1016C0000646012000F00CFEFFF7E1FF074626600A
:1016D0002F60BDE8F08110B54FF48071714801F0C2
:1016E00041F810BDF0B597B000274821684604F0D6
:1016F00051F900BF15A916A8FFF7DCFF16984DF8A1
:10170000270009A8159940F82710781CC7B2FFF7E1
:10171000E2FF08B9092FEDDB092F7DD1DDE90001DA
:10172000084402990844032190FBF1F01290DDE98E
:101730000301084405990844032190FBF1F013903C
:10174000DDE90601084408990844032190FBF1F003
:101750001490DDE91201441ADDE91301451A1299CA
:101760001498461A002C01DD204600E06042044631
:10177000002D01DD284600E068420546002E01DD0F
:10178000304600E070420646022C06DD022D04DDE4
:10179000022E02DD002017B0F0BDAC4215DAA642E1
:1017A00009DA149A1299881800EBD071C1F34F012D
:1017B0003E4A11801EE0DDE91212881800EBD0715C
:1017C000C1F34F01394A118014E0AE4209DA149A8C
:1017D0001299881800EBD071C1F34F01334A118080
:1017E00008E0DDE91312881800EBD071C1F34F0156
:1017F0002E4A1180DDE9091001440B9808440321A9
:1018000090FBF1F01290DDE90C1001440E980844B1
:10181000032190FBF1F000E061E01390DDE90F108F
:10182000014411980844032190FBF1F01490DDE984
:101830001201441ADDE91301451A12991498461A47
:10184000002C01DD204600E060420446002D01DD51
:10185000284600E068420546002E01DD304600E0E3
:1018600070420646022C05DD022D03DD022E01DD4D
:10187000002090E7AC421BDAA64209DA149A1299CA
:10188000881800EBD071C1F34F01084A518024E061
:10189000DDE91212881800EBD071C1F34F01034A41
:1018A00051801AE000080240003C00402400002063
:1018B000AE4209DA149A1299881800EBD071C1F37C
:1018C0004F01DC4A518008E0DDE91312881800EB73
:1018D000D071C1F34F01D74A5180D6485BE7002051
:1018E00059E72DE9F04105460C46164601272188A7
:1018F0002289891AE38862899A1A5143A288238926
:10190000D31AB4F802C06289ACEB020203FB1210D6
:1019100005F0F1FCC6E90C0196ED0C1BB0EE410A96
:10192000F0EE610A9FEDC41B53EC112B51EC100B30
:1019300005F078FC01D1002797E029882A89891AC7
:10194000E38862899A1A5143AA882B89D31AB4F87A
:1019500002C06289ACEB020203FB121005F0CBFC63
:10196000C6E9000121882289891AAA882B89D21AFE
:1019700051432A88D21AA388B4F808C0A3EB0C03F9
:1019800002FB131005F0B7FCC6E902012189AA8801
:101990005143A2882B8902FB13116288514322888C
:1019A0005A432389B5F800C003FB1C23E28803FBDC
:1019B0000212A18801FB0CF12388B5F804C003FBD7
:1019C0001C13618903FB012005F095FCC6E90401A5
:1019D0006A886989511AE38862899A1A5143EB88A7
:1019E0006A899B1AB4F802C06289ACEB020203FB5D
:1019F000121005F080FCC6E9060121882289891AA7
:101A0000EB886A899A1A51436B886A899A1AA38863
:101A1000B4F808C0A3EB0C0302FB131005F06BFC39
:101A2000C6E908012189EA885143A3886A8903FB32
:101A300012116288514322886B895A432389B5F871
:101A400002C003FB1C23E28803FB0213A18801FBF5
:101A50000CF1B4F800C0EA880CFB1212618902FB99
:101A6000013005F048FCC6E90A013846BDE8F081BE
:101A70002DE9F0412DED0C8B06460D46144601274D
:101A800094ED0C1BB0EE410AF0EE610A9FED6A1B6B
:101A900053EC112B51EC100B05F0C4FB7DD0688882
:101AA00005F040FC41EC1D0B94ED021BB0EE410A29
:101AB000F0EE610A53EC102B05F048FC41EC1B0BD7
:101AC000288805F02FFC41EC1D0B94ED001BB0EEB7
:101AD000410AF0EE610A53EC102B05F037FC41ECA3
:101AE0001C0B53EC1B2B05F091F941EC1A0B94EDF8
:101AF000041BB0EE410AF0EE610A53EC102B05F026
:101B000085F941EC190B94ED0C1BB0EE410AF0EE97
:101B1000610A53EC102B05F02DFA41EC180B05F07F
:101B2000BDFB3080688805F0FDFB41EC1D0B94ED9A
:101B3000081BB0EE410AF0EE610A53EC102B05F0E1
:101B400005FC41EC1A0B288805F0ECFB41EC1D0B61
:101B500094ED061BB0EE410AF0EE610A53EC102B37
:101B600005F0F4FB41EC190B53EC1A2B05F04EF980
:101B700041EC180B94ED0A1BB0EE410AF0EE610A3D
:101B800053EC102B05F042F941EC1B0B94ED0C1BB0
:101B9000B0EE410AF0EE610A00E009E053EC102BD0
:101BA00005F0E8F941EC1C0B05F078FB708000E0D3
:101BB00000273846BDEC0C8BBDE8F08170B50024E1
:101BC00029E00020FEF750FE4FF478431CA20A21C2
:101BD0002C20FFF797F9FA2000F082FB204A02EB55
:101BE000840251881E4A32F824004BF6F0434FF429
:101BF0007842FFF789FB00BFFFF774FD0546002D13
:101C0000FAD02888174921F82400688801EB84015C
:101C10004880601CC4B2032CD3DB134A114910481E
:101C2000FFF75FFE0020FEF71FFE70BD10B5FFF747
:101C300052FD10BD24000020000000000000000044
:101C4000546F7563682063726F7373686169722083
:101C5000746F2063616C69627261746500000000DA
:101C600018000020B0010020780100201CB50121DF
:101C7000082000F0B3FF4FF47040009001208DF871
:101C8000040000208DF8060003208DF805000020D8
:101C90008DF807006946044800F002FD4FF47041DA
:101CA000014800F07BFD1CBD000C024010B5012175
:101CB0001E4802F076F868B11D48008840F40040E4
:101CC0001B4908800121194802F07CF800211748BF
:101CD00001F038FC10BD7FB505460C4601212020DF
:101CE00000F0C5FF0195ADF800400020ADF80800F8
:101CF000ADF8020069460D4801F09BFB0122114638
:101D00000A4802F037F80121084801F01BFC37208F
:101D10008DF80C0000208DF80D0001208DF80E00CC
:101D20008DF80F0003A800F0CAFB7FBD001400402F
:101D30002A00002010B540F22551B34801F082FA84
:101D400000B3B14801F0BCF9C4B2B048008800F457
:101D50000040B8B9AD480088B0F5C87F13DA00215B
:101D6000AB4801F0AFFBA948008818B90121A84889
:101D700001F0E8FBA54801880088401CA34A1080B8
:101D8000A448445405E0A148008840F400409F491D
:101D9000088010BD10B588B004469B4801F072F869
:101DA0000121082000F01AFF0121880400F05FFFE4
:101DB0004FF44070059002208DF818008DF819003E
:101DC00000208DF81A0001208DF81B0005A992480B
:101DD00000F066FC072208218F4800F0ECFC072287
:101DE00009218D4800F0E7FC01940020ADF80800BF
:101DF000ADF80A00ADF80C00ADF810000C20ADF8FD
:101E00000E0001A9804801F0A4F8012240F22551FA
:101E10007D4801F0DCF901217B4801F022F92720FF
:101E20008DF81C0001208DF81D0002208DF81E0089
:101E300001208DF81F0007A800F041FB40217248E7
:101E400001F0F7F900207149088008B010BD0FB407
:101E500038B505A800907148009A049903F07EFBFC
:101E6000002000906D4803F031FD85B200240DE0A4
:101E700000BF4021644801F0CFF90028F9D067483D
:101E8000015D614801F018F9601C84B2AC42EFDBDF
:101E900038BC5DF814FB10B540F22551604801F0E4
:101EA000D1F900B35E4801F00BF9C4B25D48008877
:101EB00000F40040B8B95B480088B0F5C87F13DA79
:101EC0000021534801F0FEFA5648008818B9012154
:101ED0004F4801F037FB534801880088401C514AA5
:101EE00010805148445405E04E48008840F40040BA
:101EF0004C49088010BD10B588B00446484800F031
:101F0000C1FF0121042000F069FE0121202000F022
:101F1000BFFEC020059002208DF818008DF8190032
:101F200000208DF81A0001208DF81B0005A93F48FC
:101F300000F0B6FB082206213C4800F03CFC0822D9
:101F400007213A4800F037FC01940020ADF8080062
:101F5000ADF80A00ADF80C00ADF810000C20ADF89B
:101F60000E0001A92E4800F0F4FF012240F2255195
:101F70002B4801F02CF90121294801F072F8472083
:101F80008DF81C0002208DF81D0003208DF81E0026
:101F900001208DF81F0007A800F091FA42F2CF014E
:101FA0006320FFF798FE0021194801F0CBFA402189
:101FB0001B4801F03EF900201A49088008B010BD06
:101FC0000FB438B505A800901948009A049903F099
:101FD000C5FA00200090164803F078FC85B2002472
:101FE0000DE000BF40210E4801F016F90028F9D09D
:101FF0000F48015D0A4801F05FF8601C84B2AC42F2
:10200000EFDB38BC5DF814FB0048004028000020DE
:102010000014004050030020000C0240C0010020CA
:10202000001401402A000020E004002000080240C3
:10203000700600207CB50A2401250121242000F02F
:10204000CDFD0120009000208DF8040003208DF8C4
:10205000050001208DF807004020009001208DF838
:10206000040000208DF8060003208DF805000120F3
:102070008DF8070040215D4800F08EFB4FF4E13001
:10208000FFF788FE4FF41650FFF735FF00207CBDA8
:1020900070B50F2630E00120554908600A2000F095
:1020A0001FF954A0FFF7D3FE00250AE00A2000F034
:1020B00017F95348008800F4004000B103E0681CA1
:1020C000C5B2142DF2DB00BF0020494908604C481E
:1020D000008800F4004078B149480478002048495D
:1020E00008800D2C08D1474800782B2804D145489A
:1020F00080793038C4B204E03000A6F10101CEB2DC
:10210000C9D100BF06B9FF24204670BD2DE9F041BA
:1021100005460F272FE00120354908600A2000F00E
:10212000DFF8294638A0FFF792FE00203849C1F8B1
:10213000980200260AE03248008800F4004000B10E
:1021400006E0052000F0CCF8701CC6B2142EF2DBBD
:1021500000BF2B48008800F4004060B12848047894
:10216000002027490880042C05D1264800784F28F4
:1021700001D1002404E03800A7F10101CFB2CAD197
:1021800000BF07B9FF242046BDE8F08170B50446C2
:102190000120174908600A2000F0A2F821461AA081
:1021A000FFF755FE00260AE01548008800F40040BD
:1021B00000B106E00A2000F093F8701CC6B2322E7F
:1021C000F2DB00BF00200A4908600D48008800F4D7
:1021D000004048B10A4805780020094908800949AB
:1021E00048550CA003F0CCF970BD0000001402406B
:1021F0009882424241542B524F4C453F0D0A0000F9
:10220000280000205003002025730D0A0000000064
:10221000008042420D0A25730000000010B50446FC
:102220006FF0040000F098F9E11704EB5171C1F36D
:10223000C701394A11701046007800EB4001C1EB2C
:10224000C0104FF6FF7101EAC0003449088010BD8C
:102250000146314A12784A434FF0E0235A61002286
:102260009A611A46126942F001021A6100BF4FF0EA
:10227000E022106900F001021AB100F48032002A55
:10228000F5D04FF0E022126922F001024FF0E02376
:102290001A6100229A6170470146204A12884A4317
:1022A0004FF0E0235A6100229A611A46126942F007
:1022B00001021A6100BF4FF0E022106900F0010234
:1022C0001AB100F48032002AF5D04FF0E0221269F2
:1022D00022F001024FF0E0231A6100229A61704758
:1022E00070B504464FF4077094FBF0F0C6B24FF49B
:1022F000077094FBF0F100FB114085B205E04FF44C
:102300000770FFF7C9FF701EC6B2002EF7D115B1D6
:102310002846FFF7C1FF70BD2C0000202E000020D2
:10232000014600BF704700BF4E4A128802F04002CB
:10233000002AF9D0C2B24B4B9A80704710B588B0D2
:1023400004460121084600F049FC0121102000F05C
:102350009FFC07220921444800F02DFA07220A2198
:10236000414800F028FA4FF4C060069002208DF832
:102370001C008DF81D0000208DF81E0001208DF836
:102380001F0006A9384800F08BF902940020ADF830
:102390000C00ADF80E00ADF81000ADF814000C20E4
:1023A000ADF8120002A92F4800F0D3FD01212D48FD
:1023B00000F057FE40212B4800F03BFF012240F285
:1023C0002551284800F003FF25208DF80400032044
:1023D0008DF805008DF8060001208DF8070001A892
:1023E00000F06DF808B010BD10B540F225511D4841
:1023F00000F028FF10B31B4800F062FEC4B21B4877
:10240000008800F40040C8B91848008800F48040F3
:1024100060B10A2C03D000201449088020E0134842
:10242000008840F400401149088019E00D2C06D1C5
:102430000E48008840F480400C49088010E00B48AA
:102440000088C0F30D000A490C5408480088401C5D
:102450000649088008460088C72801DD002008805A
:1024600010BD0000001001400000024034000020B8
:10247000000800200948804709480047FEE7FEE7BA
:10248000FEE7FEE7FEE7FEE7FEE7FEE7FEE7FEE724
:1024900004480549054A064B704700003906000804
:1024A0008901000828090020280F0020280B00209F
:1024B000280B002032490143324A1160704770B541
:1024C000002100230F22C4781CB32E4C246804F48E
:1024D000E064C4F5E064C4F30721C1F10404E3B28D
:1024E0000A4144789C40E1B28478144021430C07AF
:1024F000210E254C05786155047804F01F05012450
:10250000AC4005786D11AD0005F1E025C5F800413E
:1025100009E0047804F01F050124AC401B4D067847
:10252000761145F8264070BD194A0A400243154B02
:102530001B1F1A60704739B1124A121D12680243FC
:10254000104B1B1D1A6006E00E4A121D12688243D2
:102550000C4B1B1D1A607047042808D14FF0E02176
:10256000096941F004014FF0E022116107E04FF0EA
:10257000E021096921F004014FF0E0221161704768
:102580000000FA050CED00E000E400E080E100E06E
:1025900080FFFF1F10B504469848844208D10121EE
:1025A000084600F086FB0021012000F082FB76E067
:1025B0009348844208D10121022000F07AFB0021D7
:1025C000022000F076FB6AE08E48844208D10121A7
:1025D000042000F06EFB0021042000F06AFB5EE0A6
:1025E0008948844208D10121082000F062FB0021C3
:1025F000082000F05EFB52E08448844208D10121AB
:10260000102000F056FB0021102000F052FB46E0A5
:102610007F48844208D10121202000F04AFB00219C
:10262000202000F046FB3AE07A48844208D101219C
:10263000402000F03EFB0021402000F03AFB2EE05D
:102640007548844208D10121802000F032FB00212E
:10265000802000F02EFB22E07048844208D1012146
:10266000801500F026FB0021A01500F022FB16E0EB
:102670006B48844208D10121401500F01AFB00216B
:10268000601500F016FB0AE06648844207D101217C
:10269000001500F00EFB0021201500F00AFB10BD14
:1026A000F0B50A4600210023002400BF3DE00125CB
:1026B00005FA01F3156805EA03049C4234D1056864
:1026C0004F000326BE40B543056015794E00B54066
:1026D0000668354305601579012D02D01579022D64
:1026E00016D185684F000326BE40B54385605579F5
:1026F0004E00B540866835438560456801268E40AA
:10270000B5434560456896798E40B6B2354345601D
:10271000C5684F000326BE40B543C560D5794E005D
:10272000B540C6683543C560491C1029BFD3F0BD0C
:102730004FF6FF7101600021017141718171C1711A
:10274000704708B54FF480320092009A0A43009215
:10275000009AC261C161009AC261C2690092C269F5
:10276000009208BD0246002013690B400BB1012006
:1027700000E0002070470146086980B270470246B9
:10278000002053690B400BB1012000E0002070478E
:102790000146486980B270470183704741837047A2
:1027A0000AB1018300E0418370474161704742698B
:1027B0004A4042617047F0B5002300244D07ED0EFA
:1027C00002FA05F3CE1000F1200555F826504E0709
:1027D000F70E0F26BE40B543CF1000F1200646F895
:1027E0002750CE1000F1200555F8265045EA030485
:1027F000CE1000F1200545F82640F0BD0000024053
:102800000004024000080240000C02400010024098
:102810000014024000180240001C02400020024048
:102820000024024000280240F948006840F00100FE
:10283000F74908600020F64908310860F44800684C
:10284000F4490840F2490860F348091D0860F3485C
:10285000EF4984310860F0481038091D0860EC48E1
:10286000006820F48020EA4908600020E8490C3123
:102870000860E7498C31086070470021E44A921CE7
:10288000117011460870704710B5014600220023F0
:1028900000204A11012A02D1DD4C236808E0022AF7
:1028A00003D1DB4C7034236802E0D94C74342368C4
:1028B00001F01F02012494401C400CB1012000E0F3
:1028C000002010BD38B5002000900024002500BF76
:1028D0003120FFF7D9FF05460098401C0090009872
:1028E000B0F5A04F01D0002DF2D03120FFF7CCFF82
:1028F00008B1012400E00024204638BD0146002034
:10290000C34A106820F0F80040EAC1001060704728
:10291000C349086070470021BD4A703211701170C0
:10292000012802D004280AD104E00121B84A7032FB
:10293000117005E00521B64A7032117000E000BF49
:1029400000BF7047B7490860704770B5049C41EA02
:1029500082150126C6EB530645EA0645054345EABE
:102960000465AB4E361D356070BDAD4908667047D5
:10297000820142EA0172A64B84331A607047A8496B
:102980008866704710B5830143EA016343EA027326
:102990009F4C8834236010BDA14908677047A04947
:1029A000C864704702460020994B0833186820F02D
:1029B000EC6042EA01031843954B083318607047F6
:1029C00002460020924B0833186820F0784042EA13
:1029D000010318438E4B08331860704701460020EE
:1029E0008B4A0832106820F00300084310607047DB
:1029F00087480830006800F00C007047014600204E
:102A0000834A0832106820F0F000084310607047D5
:102A1000014600207E4A0832106820F4E050084346
:102A20001060704701460020794A0832106820F48F
:102A3000604040EAC10010607047F0B500210022FC
:102A40000024022500260223714F08373F6807F053
:102A50000C0121B1042905D0082937D105E0724FB6
:102A6000076036E0714F076033E0694F3F1D3F68F4
:102A7000C7F38056664F3F1D3F6807F03F036EB1B6
:102A80006A4FB7FBF3F7DFF888C10CF1040CDCF8F0
:102A900000C0CCF3881C07FB0CF40CE0624FB7FBC2
:102AA000F3F7DFF86CC10CF1040CDCF800C0CCF3D8
:102AB000881C07FB0CF4564F3F1D3F68C7F30147C6
:102AC0007F1C7D00B4FBF5F7076002E0564F0760FE
:102AD00000BF00BF4E4F08373F6807F0F0010909FB
:102AE000534F7A5C0768D7404760494F08373F68C3
:102AF00007F4E051890A4E4F7A5C4768D7408760F7
:102B0000434F08373F6807F46041490B484F7A5CF0
:102B10004768D740C760F0BD002100F44072B2F5AD
:102B2000407F0AD13A4A0832116821F4F811414A2B
:102B300002401143364A08321160354A7032126839
:102B4000C0F30B031A43324B70331A607047354998
:102B50004439086070473349403908607047364946
:102B60000860704701460020294A8C32106820F026
:102B70001F004A1E1043264A8C32106070470146DF
:102B80000020234A8C32106820F4F8504A1E40EA94
:102B900002201F4A8C3210607047014600201C4AF8
:102BA0008C32106820F440100843106070470146D2
:102BB0000020174A8C32106820F44000084310604F
:102BC000704701460020124A8C32106820F44030D1
:102BD00008431060704719490860704739B10C4AC2
:102BE0003032126802430A4B30331A6006E0084A5A
:102BF000303212688243064B30331A607047F9B1A5
:102C0000034A343212680243014B34331A601CE029
:102C100000380240FFFFF6EA1030002400300020A8
:102C200000004742800E47420024F40000127A0060
:102C300036000020FFFCFF0F5C014742E0114742D5
:102C40008F4A126882438E4B1A60704739B18C4AA2
:102C5000121D126802438A4B1B1D1A6006E0884A47
:102C6000121D12688243864B1B1D1A60704739B1D2
:102C7000834A0C3212680243814B0C331A6006E01F
:102C80007F4A0C32126882437D4B0C331A607047C6
:102C900039B17B4A103212680243794B10331A6003
:102CA00006E0774A103212688243754B10331A607F
:102CB000704739B1724A243A12680243704B243B80
:102CC0001A6006E06E4A243A126882436C4B243B39
:102CD0001A60704739B16A4A203A12680243684B59
:102CE000203B1A6006E0664A203A12688243644B31
:102CF000203B1A60704739B1614A1C3A126802439E
:102D00005F4B1C3B1A6006E05D4A1C3A1268824326
:102D10005B4B1C3B1A60704739B1594A143A126830
:102D20000243574B143B1A6006E0554A143A1268A6
:102D30008243534B143B1A60704739B1504A103AE2
:102D4000126802434E4B103B1A6006E04C4A103AA0
:102D5000126882434A4B103B1A60704739B1484AA7
:102D60001C3212680243464B1C331A6006E0444A88
:102D70001C3212688243424B1C331A60704739B1CF
:102D80003F4A2032126802433D4B20331A6006E06E
:102D90003B4A203212688243394B20331A60704715
:102DA00039B1374A243212680243354B24331A6052
:102DB00006E0334A243212688243314B24331A60CE
:102DC000704739B12E4A2C32126802432C4B2C33F7
:102DD0001A6006E02A4A2C3212688243284B2C33B0
:102DE0001A60704739B1264A303212680243244BC8
:102DF00030331A6006E0224A303212688243204B98
:102E000030331A607047012808D11D493C310968E8
:102E100041F008011A4A3C32116007E018493C3180
:102E2000096821F00801164A3C321160704739B137
:102E3000134A273A12780243114B273B1A7006E0D7
:102E40000F4A273A127882430D4B273B1A7070477E
:102E50000B484030006840F08070094940310860FC
:102E6000704701460020064A283A12680A400AB113
:102E7000012000E0002070470149263908707047A2
:102E80003438024010B50446FA48844208D1012182
:102E90001020FFF752FF00211020FFF74EFF57E0F0
:102EA000F548844209D101214804FFF735FF00218C
:102EB0004FF40030FFF730FF4AE0F048844209D178
:102EC00001218804FFF728FF00214FF48020FFF73D
:102ED00023FF3DE0EA48844209D10121C804FFF7FD
:102EE0001BFF00214FF40020FFF716FF30E0E548FC
:102EF000844209D101210805FFF70EFF00214FF49C
:102F00008010FFF709FF23E0DF48844208D1012148
:102F10002020FFF712FF00212020FFF70EFF17E00F
:102F2000DA48844209D101218807FFF7F5FE002124
:102F30004FF08040FFF7F0FE0AE0D548844207D109
:102F400001214005FFF7E8FE00216005FFF7E4FEE0
:102F500010BD2DE9FF4705460E460024A14600BFDF
:102F6000A046B08900B100BF2C8A24F44054F088F8
:102F700004432C82AC8941F20C608443B0883189CF
:102F80000843718908430443AC81AC8A24F440743B
:102F9000B0890443AC826846FFF74FFDB5488542CF
:102FA00002D0B948854202D1DDF80C9001E0DDF88D
:102FB0000890A88900F4004040B109EBC90000EB7B
:102FC000091031684900B0FBF1F707E009EBC900CF
:102FD00000EB091031688900B0FBF1F76420B7FB02
:102FE000F0F004012009642101FB1078A88900F4A5
:102FF000004040B1322000EBC800B0FBF1F000F01F
:103000000700044308E0322000EB08106421B0FB05
:10301000F1F000F00F0004432C81BDE8FF874FF46E
:103020001651016000218180C18001810C21418104
:1030300000218181704710B502460020108A20F4DB
:1030400070600B884C8823438C882343CC882343AF
:103050001843108210BD0021018041808180C18011
:10306000704721B1828942F40052828104E0828952
:103070004DF6FF731A4082817047028B02F47F4243
:103080000283028B0A430283704721B1828942F492
:103090000042828103E08289C2F30E02828170477E
:1030A00021B1828A42F40062828204E0828A4FF275
:1030B000FF731A4082827047C1F308028280704712
:1030C00001468888C0F308007047028A4FF6F07303
:1030D0001A400282028A0A430282704721B1828921
:1030E00042F00202828104E082894FF6FD731A40A9
:1030F0008281704782894FF2FF731A4082818289F0
:103100000A4382817047028A4FF6DF731A400282B7
:10311000028A0A430282704721B1028A42F4804245
:10312000028204E0028A4BF6FF731A400282704763
:10313000818941F001018181704721B1828A42F089
:103140000802828204E0828A4FF6F7731A40828274
:103150007047028BD2B20283028B42EA01220283C1
:10316000704721B1828A42F02002828204E0828A82
:103170004FF6DF731A408282704721B1828A42F093
:103180001002828204E0828A4FF6EF731A40828234
:103190007047828A4FF6FB731A408282828A0A4302
:1031A0008282704721B1828A42F00202828204E068
:1031B000828A4FF6FD731A40828270471AB1838A61
:1031C0000B43838202E0838A8B4383827047F0B58E
:1031D0000346002400260025002040F66A17B94265
:1031E00000D100BF1846C1F3421401F01F060127A9
:1031F00007FA06F5012C01D10C3004E0022C01D1B4
:10320000103000E014301AB107682F43076002E065
:103210000768AF430760F0BD02460020B1F5007FAC
:1032200000D100BF13880B400BB1012000E000204B
:10323000704701F40072B2F5007F00D100BFCA43AD
:103240000280704770B5024600240023002500204C
:1032500040F66A16B14200D100BFC1F3421501F039
:103260001F03012606FA03F3012D13D1968933407B
:1032700017E00000001001400044004000480040FA
:10328000004C004000500040001401400078004015
:10329000007C0040022D02D1168A334001E0968A5C
:1032A00033400C12012606FA04F41688344013B198
:1032B0000CB1012000E0002070BD10B500220023F9
:1032C00040F66A14A14200D100BF0A1201249440C2
:1032D000A3B2DC43048010BD10B50446FE4884420E
:1032E00008D101210846FFF728FD00210120FFF742
:1032F00024FD9DE0B4F1804F08D101210846FFF77D
:103300000BFD00210120FFF707FD91E0F348844207
:1033100008D101210220FFF7FFFC00210220FFF766
:10332000FBFC85E0EE48844208D101210420FFF730
:10333000F3FC00210420FFF7EFFC79E0E948844228
:1033400008D101210820FFF7E7FC00210820FFF742
:10335000E3FC6DE0E448844208D101211020FFF72E
:10336000DBFC00211020FFF7D7FC61E0DF4884423E
:1033700008D101212020FFF7CFFC00212020FFF7FA
:10338000CBFC55E0DA48844208D101210220FFF746
:10339000D4FC00210220FFF7D0FC49E0D54884424C
:1033A00009D101210804FFF7C8FC00214FF4803047
:1033B000FFF7C3FC3CE0D048844209D10121480416
:1033C000FFF7BBFC00214FF40030FFF7B6FC2FE005
:1033D000CA48844209D101218804FFF7AEFC0021CC
:1033E0004FF48020FFF7A9FC22E0C548844208D1B1
:1033F00001214020FFF790FC00214020FFF78CFCCA
:1034000016E0C048844208D101218020FFF784FCE7
:1034100000218020FFF780FC0AE0BB48844207D1EE
:1034200001218015FFF778FC0021A015FFF774FC3F
:1034300010BD00220288A84B98420ED0AC4B984297
:103440000BD0B0F1804F08D0A44B984205D0A44BCC
:10345000984202D0A34B984204D14FF68F731A4082
:103460004B881A43A04B984207D0A04B984204D0F7
:103470004FF6FF431A400B891A4302804B68C36220
:103480000B880385944B984202D0994B984201D106
:103490008B7A03860123838270474FF0FF314160AE
:1034A0000021018001814180817270470185828203
:1034B00070470A46002101884FF68F731940114367
:1034C0000180704741627047C16270470146486A97
:1034D00070470146088D704721B1028842F0020210
:1034E000028004E002884FF6FD731A4002807047A4
:1034F00021B1028842F00402028004E002884FF603
:10350000FB731A400280704721B1028842F08002AA
:10351000028004E002884FF67F731A4002807047F1
:1035200002884FF6F7731A40028002880A4302802D
:10353000704702884FF6FF431A40028002880A4310
:103540000280704721B1028842F00102028004E04B
:1035500002884FF6FE731A400280704770B500244F
:1035600000220023058C4FF6FE7635400584028C40
:103570008388048B4FF68F752C40B51E2C400D8828
:103580002C43751E2A408D892A434D882A43524D6B
:10359000A84202D0564DA84213D14FF6F7752A40E3
:1035A000CD892A434FF6FB752A408D882A434FF672
:1035B000FF652B404FF6FF552B400D8A2B434D8A5C
:1035C0002B43838004838D684563028470BD70B58E
:1035D000002400220023058C4FF6EF763540058449
:1035E000028C8388048B48F6FF752C404FF6FF450C
:1035F0002C400D884FF6FF7606EA05252C434FF642
:10360000DF752A408D8906EA05152A434D8806EAAA
:1036100005152A43304DA84202D0354DA8421DD190
:103620004FF67F752A40CD894FF6FF7606EA0515DD
:103630002A434FF6BF752A408D8806EA05152A43AE
:103640004FF6FF352B404FF2FF752B400D8A06EAEF
:1036500085052B434D8A06EA85052B438380048329
:103660008D688563028470BD70B50024002200233C
:10367000058C4FF6FF6635400584028C8388848B69
:103680004FF68F752C404FF6FC752C400D882C435F
:103690004FF6FF552A408D894FF6FF7606EA05253D
:1036A0002A434D8806EA05252A430B4DA84202D03D
:1036B0000F4DA84238D14FF2FF752A40CD894FF601
:1036C000FF7606EA05252A434FF6FF352A408D8806
:1036D00006EA05252A4319E00000014000040040E5
:1036E00000080040000C00400010004000140040A2
:1036F00000040140004001400044014000480140F6
:1037000000180040001C0040002000404EF6FF75ED
:103710002B404DF6FF752B400D8A06EA05152B430D
:103720004D8A06EA05152B43838084838D68C56323
:10373000028470BD70B5002200230024058C4EF673
:10374000FF7635400584038C8488828B48F6FF75AC
:103750002A404FF6FF452A400D884FF6FF7606EACD
:1037600005252A434DF6FF752B408D8906EA053560
:103770002B434D8806EA05352B43FE4DA84202D067
:10378000FD4DA84208D14BF6FF752C400D8A4FF62F
:10379000FF7606EA85152C43848082838D68056454
:1037A000038470BD0021018041808180816081811E
:1037B000C18101824182704770B503460020002418
:1037C0001846183001258D40ACB21D8CA5431D84D0
:1037D00009B108290AD100EB610005684FF68F7620
:1037E000354005600568154305600FE00D1FC5F302
:1037F0004E052844056848F6FF76354005600568A3
:103800004FF6FF7606EA02263543056070BD416338
:10381000704781637047C1637047016470470A460F
:103820000021018B4FF68F731940114301837047BC
:103830000A460021018B48F6FF7319404FF6FF73CB
:1038400003EA02231943018370470A460021818B52
:103850004FF68F7319401143818370470A46002148
:10386000818B48F6FF7319404FF6FF7303EA02237A
:103870001943818370470A460021018B4FF6F77385
:1038800019401143018370470A460021018B4FF212
:10389000FF7319404FF6FF7303EA022319430183B4
:1038A00070470A460021818B4FF6F7731940114388
:1038B000818370470A460021818B4FF2FF731940C4
:1038C0004FF6FF7303EA02231943818370470A46C8
:1038D0000021018B4FF6FB731940114301837047A0
:1038E0000A460021018B4FF6FF3319404FF6FF7354
:1038F00003EA02231943018370470A460021818BA2
:103900004FF6FB7319401143818370470A4600212B
:10391000818B4FF6FF3319404FF6FF7303EA022302
:103920001943818370470A460021018B4FF67F734C
:1039300019401143018370470A460021018BC1F3EE
:103940000E014FF6FF7303EA022319430183704708
:103950000A460021818B4FF67F7319401143818302
:1039600070470A460021818BC1F30E014FF6FF73A9
:1039700003EA02231943818370470A460021018C20
:103980004FF6FD7319401143018470470A46002128
:10399000018C4FF6F77319401143018470470A46B2
:1039A0000021018C4FF6DF7319404FF6FF7303EAD5
:1039B00002131943018470470A460021018C4FF617
:1039C0007F7319404FF6FF7303EA02131943018412
:1039D00070470A460021018C4FF6FF5319404FF6FD
:1039E000FF7303EA02231943018470470A4600214A
:1039F000018C4FF2FF7319404FF6FF7303EA022365
:103A00001943018470470A460021018C4DF6FF736B
:103A100019404FF6FF7303EA0233194301847047DC
:103A200030B5002301248C40A3B2048C9C43048451
:103A3000048C02FA01F5ADB22C43048430BD30B5DC
:103A4000002304248C40A3B2048C9C430484048C83
:103A500002FA01F5ADB22C43048430BD828B4FF2E3
:103A6000FF331A408283828B4FF6FF7303EA0123F0
:103A70001A4382837047F0B50C4615460021002298
:103A80000026078C4EF6FF7C07EA0C070784818B23
:103A9000028C4FF6FF7707EA043640F6FF473940BD
:103AA0004FF6FF7707EA052739434FF6FF7707EA16
:103AB0000337394345F6FF773A4046F480573A4397
:103AC00081830284F0BD828B4FF6F3731A408283A8
:103AD000828B0A4382837047F0B50C46154600215D
:103AE00000220026078C4FF6FF6C07EA0C070784BC
:103AF000818B028C4FF6FF7707EA04264FF60C778E
:103B000039404FF6FF7707EA03172F4339434FF247
:103B1000FF573A4046F480773A4381830284F0BDF0
:103B2000028B4FF2FF331A400283028B4FF6FF7372
:103B300003EA01231A4302837047F0B50C46154689
:103B4000002100220026078C4FF6EF7C07EA0C07C5
:103B50000784018B028C4FF6FF7707EA041640F6C4
:103B6000FF4739404FF6FF7707EA033739434FF6EF
:103B7000FF7703E0000001400004014007EA052749
:103B800039434FF65F773A4046F010073A430183D6
:103B90000284F0BD028B4FF6F3731A400283028B4E
:103BA0000A4302837047F0B50C46154600210022F7
:103BB000068C4FF6FE773E400684018B028C4FF652
:103BC0000C7631407E1C06EA03162E4331434FF635
:103BD000F576324044F00106324301830284F0BDA1
:103BE00070B505460C46208850B92389A2886188A3
:103BF0002846FFF7D8FFE1882846FFF7CBFF25E0EE
:103C0000208804280AD12389A28861882846FFF7E2
:103C100094FFE1882846FFF783FF17E020880828F3
:103C20000AD12389A28861882846FFF755FFE188D9
:103C30002846FFF748FF09E02389A28861882846C3
:103C4000FFF719FFE1882846FFF708FF70BD002144
:103C500001804180012181800021C1800181704764
:103C60002DE9F04105460C4600260127608808B979
:103C7000022600E00026A088012801D1022700E0EA
:103C800001272088A0B92389A28861882846FFF7E8
:103C90008AFFE1882846FFF77DFF23893A463146AF
:103CA0002846FFF74AFFE1882846FFF739FF13E06F
:103CB0002389A28861882846FFF73FFFE1882846CC
:103CC000FFF72EFF23893A4631462846FFF76BFF60
:103CD000E1882846FFF75EFFBDE8F0810146486BAA
:103CE00070470146886B70470146C86B70470146B4
:103CF000086C70470A884B881A438B881A43CB8814
:103D00001A430B891A434B891A438B891A43A0F82B
:103D1000442070470021018041808180C180018161
:103D200041818181704731B1B0F8442042F40042B2
:103D3000A0F8442005E0B0F84420C2F30E02A0F839
:103D40004420704721B1828842F00402828004E05E
:103D500082884FF6FB731A408280704721B18288B7
:103D600042F00102828004E082884FF6FE731A401E
:103D7000828070471AB183890B43838102E0838973
:103D80008B43838170478182704702460020138AEB
:103D90000B400BB1012000E000207047CA430282B3
:103DA000704730B50246002000230024158A05EA3A
:103DB0000103958905EA010413B10CB1012000E06B
:103DC000002030BDCA430282704741EA0203A0F8D6
:103DD000483070471AB183890B43838102E083899D
:103DE0008B438381704721B1828842F00802828030
:103DF00004E082884FF6F7731A4082807047018989
:103E00004FF6F8721140018170470A46002101897E
:103E10004FF68F73194011430181704730B5044646
:103E20000D4629462046FFF7F0FF208940F00700A5
:103E3000208130BD2DE9F04104460D4616461F464F
:103E4000602D06D13B46012231462046FFF775FE24
:103E500005E03B46012231462046FFF7A4FE2946F5
:103E60002046FFF7D2FF208940F007002081BDE8FF
:103E7000F08130B50C4600210189C9B24FF6FF75BB
:103E800005EA0325154325432943018130BD2DE96A
:103E9000F04105460E4617469846002443463A46EA
:103EA00031462846FFF7E5FF2C894FF6F8700440AD
:103EB00044F007044FF68F70044044F070042C81E6
:103EC000BDE8F081F0B504460D4616461F463B4658
:103ED000324629462046FFF7CCFF208940F4804037
:103EE0002081F0BD82884FF68F731A4082808288CD
:103EF0000A438280704702894FF6F8731A400281A4
:103F000002890A430281704702894FF67F731A4083
:103F1000028102890A4302817047F0B50C461546BA
:103F20001E460021002200230189028B038C4FF6DC
:103F3000F877394021434FF6FC473A4040F20117E9
:103F40003A434FF6DD773B404FF6FF7707EA061717
:103F50002F433B43018102830384F0BD21B182885A
:103F600042F08002828004E082884FF67F731A401C
:103F700082807047A0F850107047000010B50446CA
:103F8000FB48844208D101218014FEF7D6FE0021AF
:103F9000A014FEF7D2FE3CE0F648844208D101218D
:103FA0000014FEF7B9FE00212014FEF7B5FE30E044
:103FB000F148844208D10121C013FEF7ADFE002173
:103FC000E013FEF7A9FE24E0EC48844208D1012169
:103FD0004014FEF7B2FE00216014FEF7AEFE18E0BA
:103FE000E748844209D101210805FEF7A6FE002119
:103FF0004FF48010FEF7A1FE0BE0E248844208D1A6
:1040000001214805FEF799FE00214FF40010FEF74C
:1040100094FE10BD10B50022028802F441520B88B4
:104020004C8823438C882343CC8823430C89234327
:104030004C8923438C892343CC8923431A43028030
:10404000838B4FF2FF74234083830B8A038210BD5E
:104050002DE9F04F0025022300244FF00109002232
:104060000026002794469046B0F81CA04FF2400B63
:104070000AEA0B0AA0F81CA04FF0020AA0F820A040
:10408000858BD1F808A0BAF1020F01D100BF82E000
:10409000B1F804A0BAF1000F02D14FF0010901E01C
:1040A0004FF00209DFF8E0A2DAF800A00AF4000AF3
:1040B000BAF1000F09D0DFF8D0A2DAF800A02AF494
:1040C000000ADFF8C4B2CBF800A0DFF8BCA20AF106
:1040D0007C0ADAF800A0CAF3881CDFF8ACA20AF167
:1040E0007C0ADAF800A0CAF30278DFF89CA2AAF1F1
:1040F000040ADAF800A00AF03F07DFF88CA2AAF160
:10410000040ADAF800A00AF4800ABAF5800F08D190
:10411000DFF878A2BAFBF7FA0AFB0CFABAFBF8F65A
:1041200007E0DFF86CA2BAFBF7FA0AFB0CFABAFB5D
:10413000F8F6B1F806A0BAF5007F0ED14FEA162ABC
:104140000AEB8A0A4FEA4A0AD1F808B0BAFBFBFA2E
:104150000AF1050A1FFA8AF20FE04FEA491AB6FB84
:10416000FAFA0AEB8A0A4FEA4A0AD1F808B0BAFB0F
:10417000FBFA0AF1050A1FFA8AF24FF00A0AB2FBAB
:10418000FAF202F00104A2EB040ACAF34F034FF65D
:10419000FF7A0AEA0424022B01DBFF2B01DD022354
:1041A0000024B1F806A04AEA040A4AEA030AA0F881
:1041B00020A0B1F804A0B1F80CB04AEA0B0AB1F89B
:1041C00002B04AEA0B0AB1F800B04AEA0B0A4AF414
:1041D000006A4AEA05058583BDE8F08F0021018069
:1041E00041808180C180018141818181C18107211C
:1041F000018270470021018041808180C1800221BD
:10420000816000218181704721B1028842F0400223
:10421000028004E002884FF6BF731A4002807047A4
:1042200021B1828B42F48062828304E0828B4FF65C
:10423000FF331A408283704702884FF2FF731A409F
:10424000028002880A4302807047B1F5804F04D192
:10425000028842F48042028004E002884BF6FF7339
:104260001A40028070474FF6FF62914204D00288E4
:1042700042F48072028004E002884FF6FF631A4025
:104280000280704721B1828842F00402828004E0FB
:1042900082884FF6FB731A408280704721B1828872
:1042A00042F01002828004E082884FF6EF731A40D9
:1042B0008280704730B500220023848B4FF2400586
:1042C0002C40848302240484828B0C88B4F5007F04
:1042D00001D00C8814B94FF4807308E00C88B4F551
:1042E000407F03D00C88B4F5807F00D100238C88F8
:1042F0008D892C434D882C431C4344F40064224395
:10430000828330BD0146888970478181704721B121
:10431000028842F40052028004E002884DF6FF73E6
:104320001A4002807047018841F480510180704733
:1043300002460020012901D0108B00E0908A7047CE
:104340000146088A70471AB183880B43838002E0D4
:1043500083888B438380704730B5002400230C1181
:104360000125A540ABB2AAB185881D43858014E024
:104370000030014000380040003C00400034014063
:1043800000500140005401400838024000127A00F9
:104390000024F40085889D43858030BD02460020BE
:1043A00013890B400BB1012000E000207047CA4385
:1043B00002817047F0B5024600200024002300254A
:1043C00001F00F070126BE40B4B20B1101269E403A
:1043D000B3B2968806EA03051689264016B10DB1D8
:1043E000012000E00020F0BD10B5002201F00F0414
:1043F0000123A3409AB2D343038110BD10B58CB002
:1044000004461E230BAA03A9204600F0A9FE009033
:10441000009810B101200CB010BD9DF82C00044490
:1044200000200B900EE040489DF82C2050F8221000
:1044300003A800F0FDFD00B908E09DF82C00401C29
:10444000C0B20B909DF82C000728ECD300BF9DF85C
:104450002C00072863D2DFE800F004053C5E6564A9
:10446000630000BF31A001F08BF831A001F088F8A3
:104470003FA001F085F84EA001F082F85CA001F0A9
:104480007FF86BA001F07CF879A001F079F886A0A4
:1044900001F076F88BA001F073F890A001F070F8AD
:1044A00094A001F06DF899A001F06AF89EA001F0C7
:1044B00067F8A4A001F064F8B0A001F061F8BDA015
:1044C00001F05EF8C8A001F05BF8D4A001F058F844
:1044D0009AE216A001F054F8E0A001F051F8002093
:1044E0000B900EE0ED4800689DF82C2000EBC20018
:1044F0004168EBA001F044F89DF82C00401CC0B2CC
:104500000B90E648007D9DF82C108842EADC07A05D
:1045100001F036F878E205A001F032F8C4E171E26A
:1045200045E219E2ECE10000480000200D0A00001D
:104530002D2D2D2D2D2D2D2D2D2D2D2D2D2D2D2DAB
:104540002D2D2D2D2D2D2D2D55534D4152542056B1
:10455000332E312D2D2D2D2D2D2D2D2D2D2D2D2D80
:104560002D2D2D2D2D2D2D2D2D2D2D200D0A000025
:104570002020202055534D415254CAC7D3C9414C25
:1045800049454E54454BBFAAB7A2B5C4D2BBB8F6F5
:10459000C1E9C7C9B5C4B4AEBFDAB5F7CAD4BBA5C3
:1045A000BDBBD7E9BCFE2CCDA8B9FD200D0A00008B
:1045B000CBFC2CC4E3BFC9D2D4CDA8B9FDB4AEBFE7
:1045C000DAD6FACAD6B5F7D3C3B3CCD0F2C0EFC3AC
:1045D000E6B5C4C8CEBACEBAAFCAFD2CB2A2D6B424
:1045E000D0D02ED2F2B4CB2CC4E3BFC90D0A000048
:1045F000D2D4CBE6D2E2B8FCB8C4BAAFCAFDB5C4D7
:10460000CAE4C8EBB2CECAFD28D6A7B3D6CAFDD736
:10461000D62831302F3136BDF8D6C629A1A2D7D63B
:10462000B7FBB4AEA1A2BAAFCAFDC8EB0D0A000039
:10463000BFDAB5D8D6B7B5C8D7F7CEAAB2CECAFDBD
:10464000292CB5A5B8F6BAAFCAFDD7EEB6E0D6A705
:10465000B3D63130B8F6CAE4C8EBB2CECAFD2CB23C
:10466000A2D6A7B3D6BAAFCAFDB7B5200D0A0000CF
:10467000BBD8D6B5CFD4CABE2ED0C2D4F6B2CECA1D
:10468000FDCFD4CABEBDF8D6C6C9E8D6C3B9A6C444
:10469000DC2CD0C2D4F6BDF8D6C6D7AABBBBB9A60F
:1046A000C4DC2E0D0A000000BCBCCAF5D6A7B3D6E8
:1046B0003A7777772E6F70656E6564762E636F6DCF
:1046C0000D0A000055534D415254D3D037B8F6CFA0
:1046D000B5CDB3C3FCC1EE3A0D0A00003F3A20202D
:1046E00020202020BBF1C8A1B0EFD6FAD0C5CFA2C0
:1046F0000D0A000068656C703A202020BBF1C8A14B
:10470000B0EFD6FAD0C5CFA20D0A00006C69737461
:104710003A202020BFC9D3C3B5C4BAAFCAFDC1D0A7
:10472000B1ED0D0A0A00000069643A202020202023
:10473000BFC9D3C3BAAFCAFDB5C44944C1D0B1EDF6
:104740000D0A0A006865783A20202020B2CECAFD02
:104750003136BDF8D6C6CFD4CABE2CBAF3B8FABF2C
:10476000D5B8F12BCAFDD7D6BCB4D6B4D0D0BDF8DD
:10477000D6C6D7AABBBB0D0A0A0000006465633A1F
:1047800020202020B2CECAFD3130BDF8D6C6CFD40D
:10479000CABE2CBAF3B8FABFD5B8F12BCAFDD7D62A
:1047A000BCB4D6B4D0D0BDF8D6C6D7AABBBB0D0A10
:1047B0000A00000072756E74696D653A312CBFAAEB
:1047C000C6F4BAAFCAFDD4CBD0D0BCC6CAB13B3058
:1047D0002CB9D8B1D5BAAFCAFDD4CBD0D0BCC6CADB
:1047E000B13B0D0A0A000000C7EBB0B4D5D5B3CC7D
:1047F000D0F2B1E0D0B4B8F1CABDCAE4C8EBBAAFE8
:10480000CAFDC3FBBCB0B2CECAFDB2A2D2D4BBD8E3
:10481000B3B5BCFCBDE1CAF82E0D0A002D2D2D2D1F
:104820002D2D2D2D2D2D2D2D2D2D2D2D2D2D2D2DB8
:104830002D2D2D2D2D2D414C49454E54454B2D2DC3
:104840002D2D2D2D2D2D2D2D2D2D2D2D2D2D2D2D98
:104850002D2D2D2D2D2D2D200D0A00002D2D2D2D32
:104860002D2D2D2D2D2D2D2D2D2D2D2D2D2D2D2D78
:104870002D2D2D2D2DBAAFCAFDC7E5B5A52D2D2D9A
:104880002D2D2D2D2D2D2D2D2D2D2D2D2D2D2D2D58
:104890002D2D2D2D2D2D2D2D200D0A0084000020D5
:1048A00025730D0A00000000EEA000F069FE002054
:1048B0000B901AE0FB4909689DF82C2001EBC2011E
:1048C00001AB02AA486803A900F070FCF548006833
:1048D0009DF82C1050F8312003A9F3A000F050FEF1
:1048E0009DF82C00401CC0B20B90EE48007D9DF856
:1048F0002C108842DEDCAFF2CC3000F041FE83E0C9
:10490000AFF2D83000F03CFE0BAA03A9204600F01D
:1049100029FD9DF82C00C8B9694603A800F0BBFB2F
:104920000B909DF82C0020B9E4A0009900F028FE1F
:104930000EE09DF82C00042801D002206BE5E2A0D7
:1049400000F01EFE0120D749C87501E0022062E593
:10495000DCA000F015FE57E0DAA000F011FE0BAA73
:1049600003A9204600F0FEFC9DF82C00C8B969465A
:1049700003A800F090FB0B909DF82C0020B9D7A065
:10498000009900F0FDFD0EE09DF82C00042801D0F8
:10499000022040E5D4A000F0F3FD0020C149C87515
:1049A00001E0022037E5C7A000F0EAFD2CE0C5A039
:1049B00000F0E6FD0BAA03A9204600F0D3FC9DF809
:1049C0002C00C8B9694603A800F065FB0B909DF860
:1049D0002C0078B9B349009881F8EC00084690F8AB
:1049E000EC0018B1C5A000F0CBFD07E0CAA000F0B4
:1049F000C7FD03E002200EE502200CE5B1A000F0A7
:104A0000BFFD01E0012006E500BF002003E510B571
:104A10000121C848FFF7C2F94FF6FF71C548FEF7FC
:104A200053FD0021C348FEF74DFD00209D49C1F80C
:104A3000F00010BD10B50121BE48FFF7A6F901280E
:104A400008D19848D0F8F0004FF6FF710844954916
:104A5000C1F8F000B748FEF739FD9249D1F8F010DF
:104A600008449049C1F8F0000846D0F8F00010BDA5
:104A700010B50121AF48FFF794F901280AD18949FF
:104A8000086980470021AB48FEF71CFD6421A94856
:104A9000FEF71AFD0121A748FFF794F910BD7FB575
:104AA00004460D4601210420FEF7E1F8ADF8005060
:104AB0000020ADF802000194ADF8080069469D4859
:104AC000FEF7B7FC012211469A48FFF753F901217E
:104AD0009848FEF737FD1E208DF80C0003208DF856
:104AE0000D008DF80E0001208DF80F0003A8FDF7D2
:104AF000E6FC7FBD10B5044604EBC40000EB0410D7
:104B00000122C2EB800081B24FF47A70FFF7C7FF39
:104B100001206449C87510BD30B595B0054613AB8A
:104B200012AA09A9284600F041FB044614B1204608
:104B300015B030BD0020149026E05A4909689DF850
:104B4000502001EBC20113AB11AA486801A900F083
:104B50002DFB04460CB12046EAE709A901A800F0A4
:104B600067FA60B99DF844009DF84810884201DD5D
:104B70000220DDE79DF850004A4988750AE09DF85B
:104B80005000401CC0B214904648007D9DF8501063
:104B90008842D2DC00BF4348007D9DF85010884217
:104BA00001D10420C4E714A9284600F04CFC0446B7
:104BB0000CB12046BCE79DF850003A4948750020EA
:104BC000B6E72DE9F0419AB03648847D007DA042D9
:104BD00002DC1AB0BDE8F0813249096801EBC4017A
:104BE00006AB07AA486808A900F0E0FA08A952A095
:104BF00000F0C6FC0026B9E02A48008B0121B14034
:104C00000840D8B122214EA000F0BAFC304600F096
:104C10000DFC24492431471839464AA000F0B0FC65
:104C2000222147A000F0ACFC304600F0FFFB1D49FC
:104C30002431084410A941F826008DE0304600F0E8
:104C4000F5FB18492431085810A941F826001548E9
:104C5000C07D30B910A850F826103BA000F090FCA1
:104C60007AE073E02D2D2D2D2D2D2D2D2D2D2D2D7B
:104C70002D2D2D2D2D2D2D2D2D2D2D2D2DBAAFCAB8
:104C8000FD204944202D2D2D2D2D2D2D2D2D2D2D6B
:104C90002D2D2D2D2D2D2D2D2D2D2D2D2D2D2D2D44
:104CA000200D0A00840000202573206964206973A8
:104CB0003A0D0A3058253038580D0A004845583A00
:104CC000305825580D0A00003136BDF8D6C6B2CE90
:104CD000CAFDCFD4CABE210D0A0000004445433AA4
:104CE000256C750D0A0000003130BDF8D6C6B2CE75
:104CF000CAFDCFD4CABE210D0A00000052756E2035
:104D000054696D652043616C63756C6174696F6E85
:104D1000204F4E0D0A00000052756E2054696D65DB
:104D20002043616C63756C6174696F6E204F4646F9
:104D30000D0A0000000800400D0A2573280000003D
:104D40002563000025730000256C750010A850F83D
:104D5000261095A000F014FC9DF81C00401EB042E7
:104D600002D093A000F00CFC701CC6B29DF81C0091
:104D70008642FFF641AF8FA000F002FCFFF747FE2E
:104D80008D48407D0B280DD2DFE800F0060D151E82
:104D900027323F4E5F7287008749096851F8340017
:104DA0008047054690E0844A126852F83410109803
:104DB0008847054688E0804B1B6853F83420DDE9BE
:104DC0001001904705467FE07B4F3F6857F834302D
:104DD00010A807C89847054676E0DFF8DCC1DCF884
:104DE00000C05CF8347010A80FC8B84705466BE0E7
:104DF0001498DFF8C4C10090DCF800C05CF834708F
:104E000010A80FC8B84705465EE0DDE91401DFF8D9
:104E1000A8C1CDE90001DCF800C05CF8347010A82E
:104E20000FC8B84705464FE0DDE914121698DFF8C1
:104E300088C1CDE900120290DCF800C05CF8347043
:104E400010A80FC8B84705463EE0DDE91423DDE9A8
:104E50001610DFF864C1CDE90023CDE90210DCF8BB
:104E600000C05CF8347010A80FC8B84705462BE0A6
:104E7000DDE91523DDE91710CDE90123CDE90310A4
:104E80001498DFF834C10090DCF800C05CF834708E
:104E900010A80FC8B847054616E0DDE91623DDE97E
:104EA0001810CDE90223CDE90410DDE91401DFF883
:104EB00008C1CDE90001DCF800C05CF8347010A82E
:104EC0000FC8B847054600BF00BFFFF7B3FD9DF808
:104ED000180001280CD13848C07D20B9294637A0D8
:104EE00000F04EFB07E0294636A000F049FB02E047
:104EF00033A000F045FB304890F8EC0088B12E4814
:104F0000D0F8F0000A21B0FBF1F201FB12072A48A9
:104F1000D0F8F000B0FBF1F83A4641462CA000F082
:104F20002FFB00BF55E670B53148008800F4004003
:104F3000002833D02E48057800202E4948551E48B9
:104F400081682C48884704461CB91B49C8688047BB
:104F500021E02848FFF752FA0546012D00D02C46E3
:104F6000CCB1012C06D0022C08D0032C0AD0042C82
:104F700010D10BE020A000F003FB0BE021A000F01B
:104F8000FFFA07E022A000F0FBFA03E023A000F004
:104F9000F7FA00BF00BF00201549088070BD014628
:104FA00008687047016070473058255800000000BD
:104FB0002C00000029000000840000203D256C75B5
:104FC0003B0D0A003D305825583B0D0A00000000FB
:104FD00046756E6374696F6E2052756E2054696DEC
:104FE000653A25642E2531646D730D0A00000000BA
:104FF0003400002000080020BAAFCAFDB4EDCEF3A3
:10500000210D0A00B2CECAFDB4EDCEF3210D0A0087
:10501000B2CECAFDCCABB6E0210D0A00CEB4D5D2DB
:10502000B5BDC6A5C5E4B5C4BAAFCAFD210D0A0019
:1050300002460AE010780B78984201D001207047B0
:10504000107800B902E0521C491CF3E700BF0020B1
:10505000F5E706E002780A70027802B902E0401C27
:10506000491CF7E700BF70470146002005E00A78B9
:1050700002B903E0421CD0B2491CF8E700BF7047F8
:1050800010B50246012000E050430B00A1F10104DD
:10509000E1B2F9D110BD2DE9F04307460E460025D7
:1050A0004FF00A083C46002030601FE02078392885
:1050B00002DC207830280ADA2078462802DC2078C2
:1050C000412804DA2078582809D1012D07D1207809
:1050D000412801DB4FF01008681CC5B205E02078BC
:1050E00000B904E00120BDE8F083641CDEE700BFE6
:1050F0003C46B8F1100F0FD1032D01DA0220F2E780
:105100002078302806D16078582803D1A41CA81E26
:10511000C5B204E00320E6E70DB90420E3E71BE095
:105120000DB1681EC5B22078392806DC20783028F9
:1051300003DB2078A0F1300902E02078A0F13709E4
:1051400029464046FFF79CFF316809FB001030609C
:10515000641C207800B900E0E2E700BF0020C2E74D
:1051600010B50446002010700BE020780870641C15
:10517000491C1078401C10701078984201DB012007
:1051800010BD2078202802D020780028EDD1002002
:10519000087000BFF4E70146491C00E0491C08788C
:1051A000202801D10029F9D1087870472DE9FF4F57
:1051B00085B0804689460027002004900390012096
:1051C00002904FF0000B002544461DE02078202877
:1051D00016D005F07F00052812DA0DB945F08005DC
:1051E00005F07F00042803D120782A2800D00EE0A3
:1051F000207805F07F010DF80100681CC5B202E0BF
:10520000852D00D103E0641C20780028DED100BF8A
:105210008DB1002005F07F010DF80100CBA168469B
:10522000FFF706FF18B900210898017002E001217C
:105230000898017000254FF0000A444614E0641CF1
:105240000AF1010000F0FF0A2078202802D020781F
:105250002A2809D12046FFF79EFF0646282E03D0B4
:105260002A2E01D0CDF810A02078282802D020784E
:105270000028E4D14446049810B10498401C04442A
:105280004FF0000A002654E0207810B94FF0010AD0
:1052900050E02078282803D116B9781CC7B213E053
:1052A0002078292808D13EB917B1781EC7B201E08D
:1052B0004FF0010A47B93DE02078222804D10EB909
:1052C000012000E00020064647B9207820282FD092
:1052D000207889F8000009F1010929E020782C28BC
:1052E00004D101200290681CC5B214E02078202867
:1052F00011D0207828280ED04DB9BBF1050F06DA61
:1053000020780DF80B000BF1010000F0FF0B029864
:10531000401CC0B20290012F0AD10298022807D186
:105320000298401CC0B202900398401CC0B2039087
:10533000641CA9E700BF0398012809D100200DF8DB
:105340000B0082A16846FFF773FE08B900200390A6
:10535000079903980870002089F80000504609B0AA
:10536000BDE8F08FF0B50346154600200022002668
:10537000002455E01F782C2F01D104B901221F7899
:10538000292F01D01F780FB904B94AE0002E34D17B
:105390001F78302F02DB1F78392F11DD1F78612F26
:1053A00002DB1F78662F0BDD1F78412F02DB1F7891
:1053B000462F05DD1F78582F02D01F78782F0CD18B
:1053C00002B12EE01F78612F03DB1F78203F0F70A2
:1053D00001E01F780F70491C1FE01F78222F04D1B5
:1053E00002B11EE00126012417E01F78202F14D0FF
:1053F0001F782C2F11D0FF2613E01F78222F00D109
:10540000002402B10DE044B11F785C2F02D15B1C77
:10541000471CF8B21F780F70491C471CF8B25B1C80
:10542000A8E700BF00270F702E70F0BD02460020D5
:10543000002105E0474B5B5C0344D8B24B1CD9B25A
:105440009142F7DB70472DE9F043B5B005460F46B2
:105450000024002604E000213E488155701CC6B29D
:105460000A2EF8DB06E06D1C287818B9012035B04B
:10547000BDE8F08328782828F5D16D1C61E034AAB6
:1054800069462846FFF76EFF064635449DF8D00072
:1054900020B1012827D0FF284CD149E09DF8000019
:1054A00000B333A96846FFF7F6FD06460EB10220A9
:1054B000DDE72046FFF7BAFF26490A31339A0A5042
:1054C000A1F12400008B0121A140884321491A3910
:1054D000088304211F480155601CC4B20A2C01DD59
:1054E0000320C4E726E06846FFF7BEFD401C00F03D
:1054F000FF082046FFF79AFF16490A3100EB010921
:1055000049466846FFF7A5FD12481A38018B01206D
:10551000A040014388B20F491A3908830D4800F8AA
:105520000480601CC4B20A2C01DD03209FE701E067
:1055300002209CE700BF2878292801D0287800B9EC
:1055400000E09CE700BF3C70002090E7766F696444
:10555000000000009E000020704700001CB50C46B3
:10556000064B7B4469460090204600F0C2FA044690
:105570000020694600F0D0FA20461CBDB3050000AB
:105580000FB4044910B503AA029800F0E1FA10BC68
:105590005DF814FB3000002070B504468569006892
:1055A000C10601D5302600E02026C00707D070BD17
:1055B000D4E9012130469047206A401C20626D1ECC
:1055C000F6D570BD70B5044685690078C00707D16F
:1055D00070BDD4E9012120209047206A401C206240
:1055E0006D1EF6D570BD70B50C460546012A05D076
:1055F0002878800600D5EA69002302E0012305E04F
:105600005B1C934202D2E05C0028F9D1A869E6183D
:10561000C01AA861286A184428622846FFF7BCFF10
:1056200004E0D5E9012114F8010B9047B442F8D306
:105630002846FFF7C7FF70BD2DE9F041064600245C
:1056400010687529314616A510D000F0CEF9002853
:1056500002DA404213A507E031688A0701D512A596
:1056600002E0490704D511A5012401E000F0C6F9C4
:1056700000210A2206F1240709E0B0FBF2FCB0FB8E
:10568000F2F302FB1C00303078541846491C002805
:10569000F3D123462A463046BDE8F04100F0B7B9C1
:1056A000000000002D0000002B0000002000000082
:1056B000F0B40D460188090502D5214C7C4402E076
:1056C0001F4C7C440E34002100F1240608E002F057
:1056D0000F071209E75D42EA03721B097754491C60
:1056E00052EA0307F3D102780023120704D5702D84
:1056F00006D009B1022311342246F0BC00F087B96C
:1057000001231034F8E770B504460D4621461068B1
:1057100000F074F9024629462046BDE87040002397
:10572000C6E7D21D22F00703D3E90023C0E70368D0
:10573000126843F0200303600823C3610023B7E726
:105740003A3200002DE9F05F894604464FF0000A26
:10575000DFF874B1FB44C0F820A02046E168884718
:10576000002874D0252806D0D4E901219047206A6A
:10577000401C2062F1E700265F462046E16888472A
:105780002028054607DB312D05D2781910F8200CAA
:1057900008B10643F1E7B00701D526F00406C4F8C6
:1057A0001CA00027C4F818A02A2D09D0284601F013
:1057B000F9FA38B304EB8708303DC8F8185019E0FF
:1057C00059F8041B204604EB87029161E168884781
:1057D000012F054618D1E069002820DA26F02006BE
:1057E0001DE0D8F8180000EB800005EB40003038D1
:1057F000C8F818002046E1688847054601F0D2FA4B
:105800000028EED1012F0AD02E2D08D12046E168C4
:1058100088477F1C0546022F46F02006C4DBA0699E
:10582000002803DA404246F00106A061F00701D0EB
:1058300026F010066C2D0BD0682D09D04C2D39D0D8
:105840006A2D35D0742D35D07A2D33D016E038E05E
:10585000E1682F4620468847B842054609D16C2F9B
:1058600026D04FF48060E16806432046884705460D
:1058700004E06C2F1AD04FF4807006430DB3A5F1ED
:105880004100192802D8203546F400664A462946C8
:10589000204626604E46FAF7D1FC80B101280BD095
:1058A000F61D26F0070000F1080956E74020E4E75E
:1058B0008020D8E70020D6E706F104094DE7284606
:1058C00052E7206ABDE8F09FCA31000010B5431CC2
:1058D00002E010F8011B71B18107FAD14FF00132DB
:1058E00002C88C1A8C4314EAC211F9D0C01A0A06F5
:1058F00003D0C01E10BDC01A10BD0A0401D0801E06
:1059000010BD0902FCD0401E10BD032A40F23080B9
:1059100010F0030C00F0158011F8013BBCF1020FF0
:10592000624498BF11F801CB00F8013B38BF11F871
:10593000013BA2F1040298BF00F801CB38BF00F888
:10594000013B11F0030300F0E981083AC0F0088040
:1059500051F8043B083A51F804CBA0E80810F5E7E9
:10596000121D5CBF51F8043B40F8043BAFF30080CC
:10597000D20724BF11F8013B11F801CB48BF11F841
:10598000012B24BF00F8013B00F801CB48BF00F811
:10599000012B70474FF0000200B51346944696461F
:1059A000203922BFA0E80C50A0E80C50B1F1200132
:1059B000BFF4F7AF090728BFA0E80C5048BF0CC0E0
:1059C0005DF804EB890028BF40F8042B08BF70473E
:1059D00048BF20F8022B11F0804F18BF00F8012BB0
:1059E0007047704770477047704709684A0501D58E
:1059F00040B27047C905FCD500B2704709684A0536
:105A000001D5C0B27047C905FCD580B270472DE9F9
:105A1000F0470D4699469246044600F12408016875
:105A2000880604D5E06921F01001216000E0012022
:105A3000A84201DD471B00E00027A1697A1902EBAB
:105A40000900081AA0612078C00602D42046FFF79A
:105A5000A3FD002608E0D4E901211AF806009047CA
:105A6000206A401C761C20624E45F4DB2078C0067C
:105A70000AD52046FFF790FD06E0D4E90121302049
:105A80009047206A401C2062381EA7F10107F4DC11
:105A900007E0D4E9012118F805009047206A401C6E
:105AA0002062281EA5F10105F3DC2046FFF78AFDE0
:105AB0002078000602D50220BDE8F0870120FBE730
:105AC00011680268006A530501D508700AE0D30521
:105AD00001D5088006E0130603D5C217C1E900020C
